{
  "contractName": "Todo",
  "abi": [
    {
      "inputs": [],
      "stateMutability": "nonpayable",
      "type": "constructor"
    },
    {
      "anonymous": false,
      "inputs": [
        {
          "indexed": false,
          "internalType": "uint256",
          "name": "taskId",
          "type": "uint256"
        }
      ],
      "name": "TaskCreated",
      "type": "event"
    },
    {
      "anonymous": false,
      "inputs": [
        {
          "indexed": false,
          "internalType": "uint256",
          "name": "taskId",
          "type": "uint256"
        }
      ],
      "name": "TaskToggled",
      "type": "event"
    },
    {
      "inputs": [
        {
          "internalType": "string",
          "name": "title",
          "type": "string"
        },
        {
          "internalType": "string",
          "name": "content",
          "type": "string"
        }
      ],
      "name": "createTask",
      "outputs": [],
      "stateMutability": "nonpayable",
      "type": "function"
    },
    {
      "inputs": [
        {
          "internalType": "uint256",
          "name": "id",
          "type": "uint256"
        }
      ],
      "name": "getTask",
      "outputs": [
        {
          "internalType": "uint256",
          "name": "",
          "type": "uint256"
        },
        {
          "internalType": "string",
          "name": "",
          "type": "string"
        },
        {
          "internalType": "string",
          "name": "",
          "type": "string"
        },
        {
          "internalType": "bool",
          "name": "",
          "type": "bool"
        }
      ],
      "stateMutability": "view",
      "type": "function",
      "constant": true
    },
    {
      "inputs": [
        {
          "internalType": "uint256",
          "name": "id",
          "type": "uint256"
        }
      ],
      "name": "toggleTaskStatus",
      "outputs": [],
      "stateMutability": "nonpayable",
      "type": "function"
    },
    {
      "inputs": [],
      "name": "getAllTaskIds",
      "outputs": [
        {
          "internalType": "uint256[]",
          "name": "",
          "type": "uint256[]"
        }
      ],
      "stateMutability": "view",
      "type": "function",
      "constant": true
    }
  ],
  "bytecode": "0x608060405234801561001057600080fd5b50600067ffffffffffffffff81111561002c5761002b6100e0565b5b60405190808252806020026020018201604052801561005a5781602001602082028036833780820191505090505b5060019080519060200190610070929190610076565b5061010f565b8280548282559060005260206000209081019282156100b2579160200282015b828111156100b1578251825591602001919060010190610096565b5b5090506100bf91906100c3565b5090565b5b808211156100dc5760008160009055506001016100c4565b5090565b7f4e487b7100000000000000000000000000000000000000000000000000000000600052604160045260246000fd5b610f388061011e6000396000f3fe608060405234801561001057600080fd5b506004361061004c5760003560e01c80631d65e77e14610051578063292a45851461008457806329a13424146100a05780635357316e146100be575b600080fd5b61006b6004803603810190610066919061070f565b6100da565b60405161007b94939291906107f6565b60405180910390f35b61009e6004803603810190610099919061097e565b6102c9565b005b6100a86103ed565b6040516100b59190610ab4565b60405180910390f35b6100d860048036038101906100d3919061070f565b610445565b005b60006060806000846000806000838152602001908152602001600020600001540361013a576040517f08c379a000000000000000000000000000000000000000000000000000000000815260040161013190610b22565b60405180910390fd5b60008060008881526020019081526020016000206040518060800160405290816000820154815260200160018201805461017390610b71565b80601f016020809104026020016040519081016040528092919081815260200182805461019f90610b71565b80156101ec5780601f106101c1576101008083540402835291602001916101ec565b820191906000526020600020905b8154815290600101906020018083116101cf57829003601f168201915b5050505050815260200160028201805461020590610b71565b80601f016020809104026020016040519081016040528092919081815260200182805461023190610b71565b801561027e5780601f106102535761010080835404028352916020019161027e565b820191906000526020600020905b81548152906001019060200180831161026157829003601f168201915b505050505081526020016003820160009054906101000a900460ff16151515158152505090508060000151816020015182604001518360600151955095509550955050509193509193565b600033426040516020016102de929190610c3d565b6040516020818303038152906040528051906020012060001c905060405180608001604052808281526020018481526020018381526020016000151581525060008083815260200190815260200160002060008201518160000155602082015181600101908161034e9190610e15565b5060408201518160020190816103649190610e15565b5060608201518160030160006101000a81548160ff02191690831515021790555090505060018190806001815401808255809150506001900390600052602060002001600090919091909150557fba46948ae716559226cede7aac0175e8ddd11b7cb3ea0369c9f218ef908b87d5816040516103e09190610ee7565b60405180910390a1505050565b6060600180548060200260200160405190810160405280929190818152602001828054801561043b57602002820191906000526020600020905b815481526020019060010190808311610427575b5050505050905090565b806000806000838152602001908152602001600020600001540361049e576040517f08c379a000000000000000000000000000000000000000000000000000000000815260040161049590610b22565b60405180910390fd5b6000806000848152602001908152602001600020604051806080016040529081600082015481526020016001820180546104d790610b71565b80601f016020809104026020016040519081016040528092919081815260200182805461050390610b71565b80156105505780601f1061052557610100808354040283529160200191610550565b820191906000526020600020905b81548152906001019060200180831161053357829003601f168201915b5050505050815260200160028201805461056990610b71565b80601f016020809104026020016040519081016040528092919081815260200182805461059590610b71565b80156105e25780601f106105b7576101008083540402835291602001916105e2565b820191906000526020600020905b8154815290600101906020018083116105c557829003601f168201915b505050505081526020016003820160009054906101000a900460ff16151515158152505090508060600151158160600190151590811515815250508060008085815260200190815260200160002060008201518160000155602082015181600101908161064f9190610e15565b5060408201518160020190816106659190610e15565b5060608201518160030160006101000a81548160ff0219169083151502179055509050507fbe8904f88bbe899bbe0c7fc646903dccd8c04072551ca8489988ac1ae564183d836040516106b89190610ee7565b60405180910390a1505050565b6000604051905090565b600080fd5b600080fd5b6000819050919050565b6106ec816106d9565b81146106f757600080fd5b50565b600081359050610709816106e3565b92915050565b600060208284031215610725576107246106cf565b5b6000610733848285016106fa565b91505092915050565b610745816106d9565b82525050565b600081519050919050565b600082825260208201905092915050565b60005b8381101561078557808201518184015260208101905061076a565b60008484015250505050565b6000601f19601f8301169050919050565b60006107ad8261074b565b6107b78185610756565b93506107c7818560208601610767565b6107d081610791565b840191505092915050565b60008115159050919050565b6107f0816107db565b82525050565b600060808201905061080b600083018761073c565b818103602083015261081d81866107a2565b9050818103604083015261083181856107a2565b905061084060608301846107e7565b95945050505050565b600080fd5b600080fd5b7f4e487b7100000000000000000000000000000000000000000000000000000000600052604160045260246000fd5b61088b82610791565b810181811067ffffffffffffffff821117156108aa576108a9610853565b5b80604052505050565b60006108bd6106c5565b90506108c98282610882565b919050565b600067ffffffffffffffff8211156108e9576108e8610853565b5b6108f282610791565b9050602081019050919050565b82818337600083830152505050565b600061092161091c846108ce565b6108b3565b90508281526020810184848401111561093d5761093c61084e565b5b6109488482856108ff565b509392505050565b600082601f83011261096557610964610849565b5b813561097584826020860161090e565b91505092915050565b60008060408385031215610995576109946106cf565b5b600083013567ffffffffffffffff8111156109b3576109b26106d4565b5b6109bf85828601610950565b925050602083013567ffffffffffffffff8111156109e0576109df6106d4565b5b6109ec85828601610950565b9150509250929050565b600081519050919050565b600082825260208201905092915050565b6000819050602082019050919050565b610a2b816106d9565b82525050565b6000610a3d8383610a22565b60208301905092915050565b6000602082019050919050565b6000610a61826109f6565b610a6b8185610a01565b9350610a7683610a12565b8060005b83811015610aa7578151610a8e8882610a31565b9750610a9983610a49565b925050600181019050610a7a565b5085935050505092915050565b60006020820190508181036000830152610ace8184610a56565b905092915050565b7f5461736b20646f6573206e6f7420657869737400000000000000000000000000600082015250565b6000610b0c601383610756565b9150610b1782610ad6565b602082019050919050565b60006020820190508181036000830152610b3b81610aff565b9050919050565b7f4e487b7100000000000000000000000000000000000000000000000000000000600052602260045260246000fd5b60006002820490506001821680610b8957607f821691505b602082108103610b9c57610b9b610b42565b5b50919050565b600073ffffffffffffffffffffffffffffffffffffffff82169050919050565b6000610bcd82610ba2565b9050919050565b60008160601b9050919050565b6000610bec82610bd4565b9050919050565b6000610bfe82610be1565b9050919050565b610c16610c1182610bc2565b610bf3565b82525050565b6000819050919050565b610c37610c32826106d9565b610c1c565b82525050565b6000610c498285610c05565b601482019150610c598284610c26565b6020820191508190509392505050565b60008190508160005260206000209050919050565b60006020601f8301049050919050565b600082821b905092915050565b600060088302610ccb7fffffffffffffffffffffffffffffffffffffffffffffffffffffffffffffffff82610c8e565b610cd58683610c8e565b95508019841693508086168417925050509392505050565b6000819050919050565b6000610d12610d0d610d08846106d9565b610ced565b6106d9565b9050919050565b6000819050919050565b610d2c83610cf7565b610d40610d3882610d19565b848454610c9b565b825550505050565b600090565b610d55610d48565b610d60818484610d23565b505050565b5b81811015610d8457610d79600082610d4d565b600181019050610d66565b5050565b601f821115610dc957610d9a81610c69565b610da384610c7e565b81016020851015610db2578190505b610dc6610dbe85610c7e565b830182610d65565b50505b505050565b600082821c905092915050565b6000610dec60001984600802610dce565b1980831691505092915050565b6000610e058383610ddb565b9150826002028217905092915050565b610e1e8261074b565b67ffffffffffffffff811115610e3757610e36610853565b5b610e418254610b71565b610e4c828285610d88565b600060209050601f831160018114610e7f5760008415610e6d578287015190505b610e778582610df9565b865550610edf565b601f198416610e8d86610c69565b60005b82811015610eb557848901518255600182019150602085019450602081019050610e90565b86831015610ed25784890151610ece601f891682610ddb565b8355505b6001600288020188555050505b505050505050565b6000602082019050610efc600083018461073c565b9291505056fea26469706673582212204fabc76844385f2f29f25a093ad7e4c2f184ad85901c897171d892d262b4801264736f6c63430008100033",
  "immutableReferences": {},
  "source": "// SPDX-License-Identifier: MIT\npragma solidity >=0.4.22 <0.9.0;\n\ncontract Todo {\n\n  struct Task {\n    uint id;\n    string title;\n    string content;\n    bool completed;\n  }\n\n  mapping(uint => Task) tasks;\n  uint[] taskIds;\n\n  constructor() {\n    taskIds = new uint[](0);\n  }\n\n  event TaskCreated(uint taskId);\n  event TaskToggled(uint taskId);\n\n  function createTask(string memory title, string memory content) external {\n    uint taskId = uint(keccak256(abi.encodePacked(msg.sender, block.timestamp)));\n    tasks[taskId] = Task(taskId, title, content, false);\n    taskIds.push(taskId);\n    emit TaskCreated(taskId);\n  }\n\n  function getTask(uint id) taskExists(id) external view returns (uint, string memory, string memory, bool) {\n    Task memory task = tasks[id];\n    return (task.id, task.title, task.content, task.completed);\n  }\n\n  function toggleTaskStatus(uint id) taskExists(id) external {\n    Task memory task = tasks[id];\n    task.completed = !task.completed;\n    tasks[id] = task;\n    emit TaskToggled(id);\n  }\n\n  function getAllTaskIds() external view returns (uint[] memory) {\n    return taskIds;\n  }\n\n  modifier taskExists(uint id) {\n    require(tasks[id].id != 0, \"Task does not exist\");\n    _;\n  }\n\n}\n",
  "sourcePath": "/home/raj/blockchain-projects/todo-app/todo-app-smart-contract/contracts/Todo.sol",
  "compiler": {
    "name": "solc",
    "version": "0.8.16+commit.07a7930e.Emscripten.clang"
  },
  "schemaVersion": "3.4.9",
  "updatedAt": "2022-09-07T11:36:57.802Z",
  "networkType": "ethereum",
  "devdoc": {
    "kind": "dev",
    "methods": {},
    "version": 1
  },
  "userdoc": {
    "kind": "user",
    "methods": {},
    "version": 1
  }
}